{
  "_format": "hh-sol-artifact-1",
  "contractName": "LDAOToken",
  "sourceName": "contracts/LDAOToken.sol",
  "abi": [
    {
      "inputs": [
        {
          "internalType": "uint256",
          "name": "initialSupply_",
          "type": "uint256"
        },
        {
          "internalType": "uint128",
          "name": "taxPerc_",
          "type": "uint128"
        },
        {
          "internalType": "uint128",
          "name": "decimals_",
          "type": "uint128"
        },
        {
          "internalType": "string",
          "name": "name_",
          "type": "string"
        },
        {
          "internalType": "string",
          "name": "symbol_",
          "type": "string"
        }
      ],
      "stateMutability": "nonpayable",
      "type": "constructor"
    },
    {
      "anonymous": false,
      "inputs": [
        {
          "indexed": true,
          "internalType": "address",
          "name": "owner",
          "type": "address"
        },
        {
          "indexed": true,
          "internalType": "address",
          "name": "spender",
          "type": "address"
        },
        {
          "indexed": false,
          "internalType": "uint256",
          "name": "value",
          "type": "uint256"
        }
      ],
      "name": "Approval",
      "type": "event"
    },
    {
      "anonymous": false,
      "inputs": [
        {
          "indexed": true,
          "internalType": "address",
          "name": "from",
          "type": "address"
        },
        {
          "indexed": true,
          "internalType": "address",
          "name": "to",
          "type": "address"
        },
        {
          "indexed": false,
          "internalType": "uint256",
          "name": "value",
          "type": "uint256"
        }
      ],
      "name": "Transfer",
      "type": "event"
    },
    {
      "inputs": [
        {
          "internalType": "address",
          "name": "owner",
          "type": "address"
        },
        {
          "internalType": "address",
          "name": "spender",
          "type": "address"
        }
      ],
      "name": "allowance",
      "outputs": [
        {
          "internalType": "uint256",
          "name": "",
          "type": "uint256"
        }
      ],
      "stateMutability": "view",
      "type": "function"
    },
    {
      "inputs": [
        {
          "internalType": "address",
          "name": "spender",
          "type": "address"
        },
        {
          "internalType": "uint256",
          "name": "amount",
          "type": "uint256"
        }
      ],
      "name": "approve",
      "outputs": [
        {
          "internalType": "bool",
          "name": "",
          "type": "bool"
        }
      ],
      "stateMutability": "nonpayable",
      "type": "function"
    },
    {
      "inputs": [
        {
          "internalType": "address",
          "name": "account",
          "type": "address"
        }
      ],
      "name": "balanceOf",
      "outputs": [
        {
          "internalType": "uint256",
          "name": "",
          "type": "uint256"
        }
      ],
      "stateMutability": "view",
      "type": "function"
    },
    {
      "inputs": [],
      "name": "decimals",
      "outputs": [
        {
          "internalType": "uint8",
          "name": "",
          "type": "uint8"
        }
      ],
      "stateMutability": "view",
      "type": "function"
    },
    {
      "inputs": [
        {
          "internalType": "address",
          "name": "spender",
          "type": "address"
        },
        {
          "internalType": "uint256",
          "name": "subtractedValue",
          "type": "uint256"
        }
      ],
      "name": "decreaseAllowance",
      "outputs": [
        {
          "internalType": "bool",
          "name": "",
          "type": "bool"
        }
      ],
      "stateMutability": "nonpayable",
      "type": "function"
    },
    {
      "inputs": [
        {
          "internalType": "address",
          "name": "spender",
          "type": "address"
        },
        {
          "internalType": "uint256",
          "name": "addedValue",
          "type": "uint256"
        }
      ],
      "name": "increaseAllowance",
      "outputs": [
        {
          "internalType": "bool",
          "name": "",
          "type": "bool"
        }
      ],
      "stateMutability": "nonpayable",
      "type": "function"
    },
    {
      "inputs": [],
      "name": "name",
      "outputs": [
        {
          "internalType": "string",
          "name": "",
          "type": "string"
        }
      ],
      "stateMutability": "view",
      "type": "function"
    },
    {
      "inputs": [],
      "name": "symbol",
      "outputs": [
        {
          "internalType": "string",
          "name": "",
          "type": "string"
        }
      ],
      "stateMutability": "view",
      "type": "function"
    },
    {
      "inputs": [],
      "name": "totalFeeCollected",
      "outputs": [
        {
          "internalType": "uint256",
          "name": "",
          "type": "uint256"
        }
      ],
      "stateMutability": "view",
      "type": "function"
    },
    {
      "inputs": [],
      "name": "totalSupply",
      "outputs": [
        {
          "internalType": "uint256",
          "name": "",
          "type": "uint256"
        }
      ],
      "stateMutability": "view",
      "type": "function"
    },
    {
      "inputs": [
        {
          "internalType": "address",
          "name": "to",
          "type": "address"
        },
        {
          "internalType": "uint256",
          "name": "amount",
          "type": "uint256"
        }
      ],
      "name": "transfer",
      "outputs": [
        {
          "internalType": "bool",
          "name": "",
          "type": "bool"
        }
      ],
      "stateMutability": "nonpayable",
      "type": "function"
    },
    {
      "inputs": [
        {
          "internalType": "address",
          "name": "from",
          "type": "address"
        },
        {
          "internalType": "address",
          "name": "to",
          "type": "address"
        },
        {
          "internalType": "uint256",
          "name": "amount",
          "type": "uint256"
        }
      ],
      "name": "transferFrom",
      "outputs": [
        {
          "internalType": "bool",
          "name": "",
          "type": "bool"
        }
      ],
      "stateMutability": "nonpayable",
      "type": "function"
    }
  ],
  "bytecode": "0x60c06040523480156200001157600080fd5b50604051620010563803806200105683398101604081905262000034916200028d565b81816003620000448382620003b5565b506004620000538282620003b5565b5050506064846001600160801b03161115620000a15760405162461bcd60e51b81526020600482015260086024820152674241445f5045524360c01b60448201526064015b60405180910390fd5b6001600160801b03808516608052831660a052620000d833620000c685600a62000596565b620000d29088620005b4565b620000e3565b5050505050620005e4565b6001600160a01b0382166200013b5760405162461bcd60e51b815260206004820152601f60248201527f45524332303a206d696e7420746f20746865207a65726f206164647265737300604482015260640162000098565b80600260008282546200014f9190620005ce565b90915550506001600160a01b038216600081815260208181526040808320805486019055518481527fddf252ad1be2c89b69c2b068fc378daa952ba7f163c4a11628f55a4df523b3ef910160405180910390a35050565b505050565b80516001600160801b0381168114620001c357600080fd5b919050565b634e487b7160e01b600052604160045260246000fd5b600082601f830112620001f057600080fd5b81516001600160401b03808211156200020d576200020d620001c8565b604051601f8301601f19908116603f01168101908282118183101715620002385762000238620001c8565b816040528381526020925086838588010111156200025557600080fd5b600091505b838210156200027957858201830151818301840152908201906200025a565b600093810190920192909252949350505050565b600080600080600060a08688031215620002a657600080fd5b85519450620002b860208701620001ab565b9350620002c860408701620001ab565b60608701519093506001600160401b0380821115620002e657600080fd5b620002f489838a01620001de565b935060808801519150808211156200030b57600080fd5b506200031a88828901620001de565b9150509295509295909350565b600181811c908216806200033c57607f821691505b6020821081036200035d57634e487b7160e01b600052602260045260246000fd5b50919050565b601f821115620001a657600081815260208120601f850160051c810160208610156200038c5750805b601f850160051c820191505b81811015620003ad5782815560010162000398565b505050505050565b81516001600160401b03811115620003d157620003d1620001c8565b620003e981620003e2845462000327565b8462000363565b602080601f831160018114620004215760008415620004085750858301515b600019600386901b1c1916600185901b178555620003ad565b600085815260208120601f198616915b82811015620004525788860151825594840194600190910190840162000431565b5085821015620004715787850151600019600388901b60f8161c191681555b5050505050600190811b01905550565b634e487b7160e01b600052601160045260246000fd5b600181815b80851115620004d8578160001904821115620004bc57620004bc62000481565b80851615620004ca57918102915b93841c93908002906200049c565b509250929050565b600082620004f15750600162000590565b81620005005750600062000590565b8160018114620005195760028114620005245762000544565b600191505062000590565b60ff84111562000538576200053862000481565b50506001821b62000590565b5060208310610133831016604e8410600b841016171562000569575081810a62000590565b62000575838362000497565b80600019048211156200058c576200058c62000481565b0290505b92915050565b6000620005ad6001600160801b03841683620004e0565b9392505050565b808202811582820484141762000590576200059062000481565b8082018082111562000590576200059062000481565b60805160a051610a4c6200060a6000396000610146015260006105fa0152610a4c6000f3fe608060405234801561001057600080fd5b50600436106100d45760003560e01c806370a0823111610081578063a9059cbb1161005b578063a9059cbb146101c7578063b9b2b5cd146101da578063dd62ed3e146101e357600080fd5b806370a082311461018357806395d89b41146101ac578063a457c2d7146101b457600080fd5b806323b872dd116100b257806323b872dd1461012c578063313ce5671461013f578063395093511461017057600080fd5b806306fdde03146100d9578063095ea7b3146100f757806318160ddd1461011a575b600080fd5b6100e161021c565b6040516100ee9190610842565b60405180910390f35b61010a6101053660046108ac565b6102ae565b60405190151581526020016100ee565b6002545b6040519081526020016100ee565b61010a61013a3660046108d6565b6102c8565b60405160ff7f00000000000000000000000000000000000000000000000000000000000000001681526020016100ee565b61010a61017e3660046108ac565b6102ec565b61011e610191366004610912565b6001600160a01b031660009081526020819052604090205490565b6100e161032b565b61010a6101c23660046108ac565b61033a565b61010a6101d53660046108ac565b6103e9565b61011e60055481565b61011e6101f1366004610934565b6001600160a01b03918216600090815260016020908152604080832093909416825291909152205490565b60606003805461022b90610967565b80601f016020809104026020016040519081016040528092919081815260200182805461025790610967565b80156102a45780601f10610279576101008083540402835291602001916102a4565b820191906000526020600020905b81548152906001019060200180831161028757829003601f168201915b5050505050905090565b6000336102bc8185856103f7565b60019150505b92915050565b6000336102d685828561054f565b6102e18585856105e1565b506001949350505050565b3360008181526001602090815260408083206001600160a01b03871684529091528120549091906102bc90829086906103269087906109b7565b6103f7565b60606004805461022b90610967565b3360008181526001602090815260408083206001600160a01b0387168452909152812054909190838110156103dc5760405162461bcd60e51b815260206004820152602560248201527f45524332303a2064656372656173656420616c6c6f77616e63652062656c6f7760448201527f207a65726f00000000000000000000000000000000000000000000000000000060648201526084015b60405180910390fd5b6102e182868684036103f7565b6000336102bc8185856105e1565b6001600160a01b0383166104725760405162461bcd60e51b8152602060048201526024808201527f45524332303a20617070726f76652066726f6d20746865207a65726f2061646460448201527f726573730000000000000000000000000000000000000000000000000000000060648201526084016103d3565b6001600160a01b0382166104ee5760405162461bcd60e51b815260206004820152602260248201527f45524332303a20617070726f766520746f20746865207a65726f20616464726560448201527f737300000000000000000000000000000000000000000000000000000000000060648201526084016103d3565b6001600160a01b0383811660008181526001602090815260408083209487168084529482529182902085905590518481527f8c5be1e5ebec7d5bd14f71427d1e84f3dd0314c0f7b2291e5b200ac8c7c3b925910160405180910390a3505050565b6001600160a01b0383811660009081526001602090815260408083209386168352929052205460001981146105db57818110156105ce5760405162461bcd60e51b815260206004820152601d60248201527f45524332303a20696e73756666696369656e7420616c6c6f77616e636500000060448201526064016103d3565b6105db84848484036103f7565b50505050565b6001600160a01b03831615610645576000606461061e837f00000000000000000000000000000000000000000000000000000000000000006109ca565b61062891906109e1565b90506106348183610a03565b915030610642858284610655565b50505b610650838383610655565b505050565b6001600160a01b0383166106d15760405162461bcd60e51b815260206004820152602560248201527f45524332303a207472616e736665722066726f6d20746865207a65726f20616460448201527f647265737300000000000000000000000000000000000000000000000000000060648201526084016103d3565b6001600160a01b03821661074d5760405162461bcd60e51b815260206004820152602360248201527f45524332303a207472616e7366657220746f20746865207a65726f206164647260448201527f657373000000000000000000000000000000000000000000000000000000000060648201526084016103d3565b6001600160a01b038316600090815260208190526040902054818110156107dc5760405162461bcd60e51b815260206004820152602660248201527f45524332303a207472616e7366657220616d6f756e742065786365656473206260448201527f616c616e6365000000000000000000000000000000000000000000000000000060648201526084016103d3565b6001600160a01b03848116600081815260208181526040808320878703905593871680835291849020805487019055925185815290927fddf252ad1be2c89b69c2b068fc378daa952ba7f163c4a11628f55a4df523b3ef910160405180910390a36105db565b600060208083528351808285015260005b8181101561086f57858101830151858201604001528201610853565b506000604082860101526040601f19601f8301168501019250505092915050565b80356001600160a01b03811681146108a757600080fd5b919050565b600080604083850312156108bf57600080fd5b6108c883610890565b946020939093013593505050565b6000806000606084860312156108eb57600080fd5b6108f484610890565b925061090260208501610890565b9150604084013590509250925092565b60006020828403121561092457600080fd5b61092d82610890565b9392505050565b6000806040838503121561094757600080fd5b61095083610890565b915061095e60208401610890565b90509250929050565b600181811c9082168061097b57607f821691505b60208210810361099b57634e487b7160e01b600052602260045260246000fd5b50919050565b634e487b7160e01b600052601160045260246000fd5b808201808211156102c2576102c26109a1565b80820281158282048414176102c2576102c26109a1565b6000826109fe57634e487b7160e01b600052601260045260246000fd5b500490565b818103818111156102c2576102c26109a156fea26469706673582212205b823b8a2885af4bc60580943b51d818ac18d3b0a1096c45d15e79f65ed6151e64736f6c63430008110033",
  "linkReferences": {},
  "deployedLinkReferences": {}
}