{
  "_format": "hh-sol-artifact-1",
  "contractName": "VotingEscrow",
  "sourceName": "contracts/VotingEscrow.sol",
  "abi": [
    {
      "inputs": [
        {
          "internalType": "address",
          "name": "_owner",
          "type": "address"
        },
        {
          "internalType": "address",
          "name": "_penaltyRecipient",
          "type": "address"
        },
        {
          "internalType": "address",
          "name": "_token",
          "type": "address"
        },
        {
          "internalType": "string",
          "name": "_name",
          "type": "string"
        },
        {
          "internalType": "string",
          "name": "_symbol",
          "type": "string"
        }
      ],
      "stateMutability": "nonpayable",
      "type": "constructor"
    },
    {
      "anonymous": false,
      "inputs": [
        {
          "indexed": false,
          "internalType": "uint256",
          "name": "amount",
          "type": "uint256"
        },
        {
          "indexed": false,
          "internalType": "address",
          "name": "recipient",
          "type": "address"
        }
      ],
      "name": "CollectPenalty",
      "type": "event"
    },
    {
      "anonymous": false,
      "inputs": [
        {
          "indexed": true,
          "internalType": "address",
          "name": "provider",
          "type": "address"
        },
        {
          "indexed": false,
          "internalType": "uint256",
          "name": "value",
          "type": "uint256"
        },
        {
          "indexed": false,
          "internalType": "uint256",
          "name": "locktime",
          "type": "uint256"
        },
        {
          "indexed": true,
          "internalType": "enum VotingEscrow.LockAction",
          "name": "action",
          "type": "uint8"
        },
        {
          "indexed": false,
          "internalType": "uint256",
          "name": "ts",
          "type": "uint256"
        }
      ],
      "name": "Deposit",
      "type": "event"
    },
    {
      "anonymous": false,
      "inputs": [
        {
          "indexed": false,
          "internalType": "address",
          "name": "owner",
          "type": "address"
        }
      ],
      "name": "TransferOwnership",
      "type": "event"
    },
    {
      "anonymous": false,
      "inputs": [],
      "name": "Unlock",
      "type": "event"
    },
    {
      "anonymous": false,
      "inputs": [
        {
          "indexed": false,
          "internalType": "address",
          "name": "blocklist",
          "type": "address"
        }
      ],
      "name": "UpdateBlocklist",
      "type": "event"
    },
    {
      "anonymous": false,
      "inputs": [
        {
          "indexed": false,
          "internalType": "address",
          "name": "recipient",
          "type": "address"
        }
      ],
      "name": "UpdatePenaltyRecipient",
      "type": "event"
    },
    {
      "anonymous": false,
      "inputs": [
        {
          "indexed": true,
          "internalType": "address",
          "name": "provider",
          "type": "address"
        },
        {
          "indexed": false,
          "internalType": "uint256",
          "name": "value",
          "type": "uint256"
        },
        {
          "indexed": true,
          "internalType": "enum VotingEscrow.LockAction",
          "name": "action",
          "type": "uint8"
        },
        {
          "indexed": false,
          "internalType": "uint256",
          "name": "ts",
          "type": "uint256"
        }
      ],
      "name": "Withdraw",
      "type": "event"
    },
    {
      "inputs": [],
      "name": "MAXTIME",
      "outputs": [
        {
          "internalType": "uint256",
          "name": "",
          "type": "uint256"
        }
      ],
      "stateMutability": "view",
      "type": "function"
    },
    {
      "inputs": [],
      "name": "MULTIPLIER",
      "outputs": [
        {
          "internalType": "uint256",
          "name": "",
          "type": "uint256"
        }
      ],
      "stateMutability": "view",
      "type": "function"
    },
    {
      "inputs": [],
      "name": "WEEK",
      "outputs": [
        {
          "internalType": "uint256",
          "name": "",
          "type": "uint256"
        }
      ],
      "stateMutability": "view",
      "type": "function"
    },
    {
      "inputs": [
        {
          "internalType": "address",
          "name": "_owner",
          "type": "address"
        }
      ],
      "name": "balanceOf",
      "outputs": [
        {
          "internalType": "uint256",
          "name": "",
          "type": "uint256"
        }
      ],
      "stateMutability": "view",
      "type": "function"
    },
    {
      "inputs": [
        {
          "internalType": "address",
          "name": "_owner",
          "type": "address"
        },
        {
          "internalType": "uint256",
          "name": "_blockNumber",
          "type": "uint256"
        }
      ],
      "name": "balanceOfAt",
      "outputs": [
        {
          "internalType": "uint256",
          "name": "",
          "type": "uint256"
        }
      ],
      "stateMutability": "view",
      "type": "function"
    },
    {
      "inputs": [],
      "name": "blocklist",
      "outputs": [
        {
          "internalType": "address",
          "name": "",
          "type": "address"
        }
      ],
      "stateMutability": "view",
      "type": "function"
    },
    {
      "inputs": [],
      "name": "checkpoint",
      "outputs": [],
      "stateMutability": "nonpayable",
      "type": "function"
    },
    {
      "inputs": [],
      "name": "collectPenalty",
      "outputs": [],
      "stateMutability": "nonpayable",
      "type": "function"
    },
    {
      "inputs": [
        {
          "internalType": "uint256",
          "name": "_value",
          "type": "uint256"
        },
        {
          "internalType": "uint256",
          "name": "_unlockTime",
          "type": "uint256"
        }
      ],
      "name": "createLock",
      "outputs": [],
      "stateMutability": "nonpayable",
      "type": "function"
    },
    {
      "inputs": [],
      "name": "decimals",
      "outputs": [
        {
          "internalType": "uint256",
          "name": "",
          "type": "uint256"
        }
      ],
      "stateMutability": "view",
      "type": "function"
    },
    {
      "inputs": [
        {
          "internalType": "address",
          "name": "_addr",
          "type": "address"
        }
      ],
      "name": "delegate",
      "outputs": [],
      "stateMutability": "nonpayable",
      "type": "function"
    },
    {
      "inputs": [
        {
          "internalType": "address",
          "name": "_addr",
          "type": "address"
        }
      ],
      "name": "forceUndelegate",
      "outputs": [],
      "stateMutability": "nonpayable",
      "type": "function"
    },
    {
      "inputs": [
        {
          "internalType": "address",
          "name": "_addr",
          "type": "address"
        }
      ],
      "name": "getLastUserPoint",
      "outputs": [
        {
          "internalType": "int128",
          "name": "bias",
          "type": "int128"
        },
        {
          "internalType": "int128",
          "name": "slope",
          "type": "int128"
        },
        {
          "internalType": "uint256",
          "name": "ts",
          "type": "uint256"
        }
      ],
      "stateMutability": "view",
      "type": "function"
    },
    {
      "inputs": [],
      "name": "globalEpoch",
      "outputs": [
        {
          "internalType": "uint256",
          "name": "",
          "type": "uint256"
        }
      ],
      "stateMutability": "view",
      "type": "function"
    },
    {
      "inputs": [
        {
          "internalType": "uint256",
          "name": "_value",
          "type": "uint256"
        }
      ],
      "name": "increaseAmount",
      "outputs": [],
      "stateMutability": "nonpayable",
      "type": "function"
    },
    {
      "inputs": [
        {
          "internalType": "uint256",
          "name": "_unlockTime",
          "type": "uint256"
        }
      ],
      "name": "increaseUnlockTime",
      "outputs": [],
      "stateMutability": "nonpayable",
      "type": "function"
    },
    {
      "inputs": [
        {
          "internalType": "address",
          "name": "_addr",
          "type": "address"
        }
      ],
      "name": "lockEnd",
      "outputs": [
        {
          "internalType": "uint256",
          "name": "",
          "type": "uint256"
        }
      ],
      "stateMutability": "view",
      "type": "function"
    },
    {
      "inputs": [
        {
          "internalType": "address",
          "name": "",
          "type": "address"
        }
      ],
      "name": "locked",
      "outputs": [
        {
          "internalType": "int128",
          "name": "amount",
          "type": "int128"
        },
        {
          "internalType": "uint256",
          "name": "end",
          "type": "uint256"
        },
        {
          "internalType": "int128",
          "name": "delegated",
          "type": "int128"
        },
        {
          "internalType": "address",
          "name": "delegatee",
          "type": "address"
        }
      ],
      "stateMutability": "view",
      "type": "function"
    },
    {
      "inputs": [],
      "name": "maxPenalty",
      "outputs": [
        {
          "internalType": "uint256",
          "name": "",
          "type": "uint256"
        }
      ],
      "stateMutability": "view",
      "type": "function"
    },
    {
      "inputs": [],
      "name": "name",
      "outputs": [
        {
          "internalType": "string",
          "name": "",
          "type": "string"
        }
      ],
      "stateMutability": "view",
      "type": "function"
    },
    {
      "inputs": [],
      "name": "owner",
      "outputs": [
        {
          "internalType": "address",
          "name": "",
          "type": "address"
        }
      ],
      "stateMutability": "view",
      "type": "function"
    },
    {
      "inputs": [],
      "name": "penaltyAccumulated",
      "outputs": [
        {
          "internalType": "uint256",
          "name": "",
          "type": "uint256"
        }
      ],
      "stateMutability": "view",
      "type": "function"
    },
    {
      "inputs": [],
      "name": "penaltyRecipient",
      "outputs": [
        {
          "internalType": "address",
          "name": "",
          "type": "address"
        }
      ],
      "stateMutability": "view",
      "type": "function"
    },
    {
      "inputs": [
        {
          "internalType": "uint256",
          "name": "",
          "type": "uint256"
        }
      ],
      "name": "pointHistory",
      "outputs": [
        {
          "internalType": "int128",
          "name": "bias",
          "type": "int128"
        },
        {
          "internalType": "int128",
          "name": "slope",
          "type": "int128"
        },
        {
          "internalType": "uint256",
          "name": "ts",
          "type": "uint256"
        },
        {
          "internalType": "uint256",
          "name": "blk",
          "type": "uint256"
        }
      ],
      "stateMutability": "view",
      "type": "function"
    },
    {
      "inputs": [],
      "name": "quitLock",
      "outputs": [],
      "stateMutability": "nonpayable",
      "type": "function"
    },
    {
      "inputs": [
        {
          "internalType": "uint256",
          "name": "",
          "type": "uint256"
        }
      ],
      "name": "slopeChanges",
      "outputs": [
        {
          "internalType": "int128",
          "name": "",
          "type": "int128"
        }
      ],
      "stateMutability": "view",
      "type": "function"
    },
    {
      "inputs": [],
      "name": "symbol",
      "outputs": [
        {
          "internalType": "string",
          "name": "",
          "type": "string"
        }
      ],
      "stateMutability": "view",
      "type": "function"
    },
    {
      "inputs": [],
      "name": "token",
      "outputs": [
        {
          "internalType": "contract IERC20",
          "name": "",
          "type": "address"
        }
      ],
      "stateMutability": "view",
      "type": "function"
    },
    {
      "inputs": [],
      "name": "totalSupply",
      "outputs": [
        {
          "internalType": "uint256",
          "name": "",
          "type": "uint256"
        }
      ],
      "stateMutability": "view",
      "type": "function"
    },
    {
      "inputs": [
        {
          "internalType": "uint256",
          "name": "_blockNumber",
          "type": "uint256"
        }
      ],
      "name": "totalSupplyAt",
      "outputs": [
        {
          "internalType": "uint256",
          "name": "",
          "type": "uint256"
        }
      ],
      "stateMutability": "view",
      "type": "function"
    },
    {
      "inputs": [
        {
          "internalType": "uint256",
          "name": "_t",
          "type": "uint256"
        }
      ],
      "name": "totalSupplyAtT",
      "outputs": [
        {
          "internalType": "uint256",
          "name": "",
          "type": "uint256"
        }
      ],
      "stateMutability": "view",
      "type": "function"
    },
    {
      "inputs": [
        {
          "internalType": "address",
          "name": "_addr",
          "type": "address"
        }
      ],
      "name": "transferOwnership",
      "outputs": [],
      "stateMutability": "nonpayable",
      "type": "function"
    },
    {
      "inputs": [],
      "name": "unlock",
      "outputs": [],
      "stateMutability": "nonpayable",
      "type": "function"
    },
    {
      "inputs": [
        {
          "internalType": "address",
          "name": "_addr",
          "type": "address"
        }
      ],
      "name": "updateBlocklist",
      "outputs": [],
      "stateMutability": "nonpayable",
      "type": "function"
    },
    {
      "inputs": [
        {
          "internalType": "address",
          "name": "_addr",
          "type": "address"
        }
      ],
      "name": "updatePenaltyRecipient",
      "outputs": [],
      "stateMutability": "nonpayable",
      "type": "function"
    },
    {
      "inputs": [
        {
          "internalType": "address",
          "name": "",
          "type": "address"
        }
      ],
      "name": "userPointEpoch",
      "outputs": [
        {
          "internalType": "uint256",
          "name": "",
          "type": "uint256"
        }
      ],
      "stateMutability": "view",
      "type": "function"
    },
    {
      "inputs": [
        {
          "internalType": "address",
          "name": "user",
          "type": "address"
        },
        {
          "internalType": "uint256",
          "name": "timestamp",
          "type": "uint256"
        }
      ],
      "name": "userPointHistory",
      "outputs": [
        {
          "components": [
            {
              "internalType": "int128",
              "name": "bias",
              "type": "int128"
            },
            {
              "internalType": "int128",
              "name": "slope",
              "type": "int128"
            },
            {
              "internalType": "uint256",
              "name": "ts",
              "type": "uint256"
            },
            {
              "internalType": "uint256",
              "name": "blk",
              "type": "uint256"
            }
          ],
          "internalType": "struct IVotingEscrow.Point",
          "name": "",
          "type": "tuple"
        }
      ],
      "stateMutability": "view",
      "type": "function"
    },
    {
      "inputs": [
        {
          "internalType": "address",
          "name": "",
          "type": "address"
        },
        {
          "internalType": "uint256",
          "name": "",
          "type": "uint256"
        }
      ],
      "name": "user_point_history",
      "outputs": [
        {
          "internalType": "int128",
          "name": "bias",
          "type": "int128"
        },
        {
          "internalType": "int128",
          "name": "slope",
          "type": "int128"
        },
        {
          "internalType": "uint256",
          "name": "ts",
          "type": "uint256"
        },
        {
          "internalType": "uint256",
          "name": "blk",
          "type": "uint256"
        }
      ],
      "stateMutability": "view",
      "type": "function"
    },
    {
      "inputs": [],
      "name": "withdraw",
      "outputs": [],
      "stateMutability": "nonpayable",
      "type": "function"
    }
  ],
  "bytecode": "0x6080604052670de0b6b3a764000060045560126729a2241af62c000e553480156200002957600080fd5b5060405162004637380380620046378339810160408190526200004c91620002ac565b6001600081815581546001600160a01b0319166001600160a01b03861690811790925560408051608081018252828152602080820184905242828401819052436060909301839052600894909455600993909355600a55805163313ce56760e01b8152905163313ce567926004808401939192918290030181865afa158015620000da573d6000803e3d6000fd5b505050506040513d601f19601f820116820180604052508101906200010091906200034f565b60ff166729a2241af62c000e81905560121015620001645760405162461bcd60e51b815260206004820152601460248201527f45786365656473206d617820646563696d616c73000000000000000000000000604482015260640160405180910390fd5b6729a2241af62c000c6200017983826200040a565b506729a2241af62c000d6200018f82826200040a565b5050600280546001600160a01b039586166001600160a01b031991821617909155600380549490951693169290921790925550620004d69050565b80516001600160a01b0381168114620001e257600080fd5b919050565b634e487b7160e01b600052604160045260246000fd5b600082601f8301126200020f57600080fd5b81516001600160401b03808211156200022c576200022c620001e7565b604051601f8301601f19908116603f01168101908282118183101715620002575762000257620001e7565b816040528381526020925086838588010111156200027457600080fd5b600091505b8382101562000298578582018301518183018401529082019062000279565b600093810190920192909252949350505050565b600080600080600060a08688031215620002c557600080fd5b620002d086620001ca565b9450620002e060208701620001ca565b9350620002f060408701620001ca565b60608701519093506001600160401b03808211156200030e57600080fd5b6200031c89838a01620001fd565b935060808801519150808211156200033357600080fd5b506200034288828901620001fd565b9150509295509295909350565b6000602082840312156200036257600080fd5b815160ff811681146200037457600080fd5b9392505050565b600181811c908216806200039057607f821691505b602082108103620003b157634e487b7160e01b600052602260045260246000fd5b50919050565b601f8211156200040557600081815260208120601f850160051c81016020861015620003e05750805b601f850160051c820191505b818110156200040157828155600101620003ec565b5050505b505050565b81516001600160401b03811115620004265762000426620001e7565b6200043e816200043784546200037b565b84620003b7565b602080601f8311600181146200047657600084156200045d5750858301515b600019600386901b1c1916600185901b17855562000401565b600085815260208120601f198616915b82811015620004a75788860151825594840194600190910190840162000486565b5085821015620004c65787850151600019600388901b60f8161c191681555b5050505050600190811b01905550565b61415180620004e66000396000f3fe608060405234801561001057600080fd5b50600436106102ad5760003560e01c806375c54eda1161017b578063c4698ee5116100d8578063f2fde38b1161008c578063f52a36f711610071578063f52a36f71461063f578063f6ab9d811461067c578063fc0c546a1461068557600080fd5b8063f2fde38b14610622578063f4359ce51461063557600080fd5b8063d64e5396116100bd578063d64e5396146105f1578063e489071114610604578063ee00ef3a1461061757600080fd5b8063c4698ee51461053a578063cbf9fe5f1461057057600080fd5b806395d89b411161012f578063a69df4b511610114578063a69df4b514610517578063b52c05fe1461051f578063c2c4c5c11461053257600080fd5b806395d89b41146104fc578063981b24d01461050457600080fd5b806381fc83bb1161016057806381fc83bb146104af5780638ad4c447146104d65780638da5cb5b146104e957600080fd5b806375c54eda146104945780637c616fe61461049c57600080fd5b8063391cc9f6116102295780635200e79e116101dd5780635c19a95c116101c25780635c19a95c1461045b57806370a082311461046e5780637116c60c1461048157600080fd5b80635200e79e146104495780635719098b1461045257600080fd5b80633ccfd60b1161020e5780633ccfd60b1461041b5780634684532e146104235780634ee2cd7e1461043657600080fd5b8063391cc9f61461040057806339f22f6b1461041357600080fd5b806318160ddd1161028057806328d09d471161026557806328d09d4714610364578063313ce5671461039f57806334d901a4146103af57600080fd5b806318160ddd14610329578063237922791461033157600080fd5b8063012caae1146102b2578063059f8b16146102e257806306fdde03146102ff57806315456eba14610314575b600080fd5b6003546102c5906001600160a01b031681565b6040516001600160a01b0390911681526020015b60405180910390f35b6102f1670de0b6b3a764000081565b6040519081526020016102d9565b610307610698565b6040516102d99190613e20565b610327610322366004613e6e565b61072d565b005b6102f1610e77565b6102f161033f366004613ea3565b6001600160a01b031660009081526729a2241af62c000b602052604090206001015490565b610377610372366004613ec5565b610eee565b60408051600f95860b81529390940b60208401529282015260608101919091526080016102d9565b6102f16729a2241af62c000e5481565b6103c26103bd366004613ec5565b610f3c565b6040516102d9919060006080820190508251600f0b82526020830151600f0b6020830152604083015160408301526060830151606083015292915050565b61032761040e366004613ea3565b610fdb565b610327611151565b61032761125a565b610327610431366004613ea3565b6115d1565b6102f1610444366004613ec5565b611666565b6102f160045481565b6102f160075481565b610327610469366004613ea3565b61192b565b6102f161047c366004613ea3565b611eeb565b6102f161048f366004613e6e565b611fd9565b6103276120a1565b6103276104aa366004613e6e565b61245e565b6102f16104bd366004613ea3565b6729a2241af62c00096020526000908152604090205481565b6103776104e4366004613e6e565b612806565b6002546102c5906001600160a01b031681565b610307612845565b6102f1610512366004613e6e565b612859565b610327612a79565b61032761052d366004613eef565b612af0565b610327612f9c565b61054d610548366004613ea3565b612fcc565b60408051600f94850b81529290930b6020830152918101919091526060016102d9565b6105be61057e366004613ea3565b6729a2241af62c000b602052600090815260409020805460018201546002830154600390930154600f92830b9391929190910b906001600160a01b031684565b60408051600f95860b815260208101949094529190930b908201526001600160a01b0390911660608201526080016102d9565b6006546102c5906001600160a01b031681565b610327610612366004613ea3565b613095565b6102f16301e1338081565b610327610630366004613ea3565b61312a565b6102f162093a8081565b61066961064d366004613e6e565b6729a2241af62c000a60205260009081526040902054600f0b81565b604051600f9190910b81526020016102d9565b6102f160055481565b6001546102c5906001600160a01b031681565b6729a2241af62c000c80546106ac90613f11565b80601f01602080910402602001604051908101604052809291908181526020018280546106d890613f11565b80156107255780601f106106fa57610100808354040283529160200191610725565b820191906000526020600020905b81548152906001019060200180831161070857829003601f168201915b505050505081565b6107356131bf565b60065460405163fbac395160e01b81523360048201526001600160a01b039091169063fbac395190602401602060405180830381865afa15801561077d573d6000803e3d6000fd5b505050506040513d601f19601f820116820180604052508101906107a19190613f4b565b156107e65760405162461bcd60e51b815260206004820152601060248201526f109b1bd8dad9590818dbdb9d1c9858dd60821b60448201526064015b60405180910390fd5b3360009081526729a2241af62c000b602090815260409182902082516080810184528154600f90810b8252600183015493820193909352600282015490920b928201929092526003909101546001600160a01b031660608201528161088d5760405162461bcd60e51b815260206004820152601460248201527f4f6e6c79206e6f6e207a65726f20616d6f756e7400000000000000000000000060448201526064016107dd565b60008160000151600f0b136108ce5760405162461bcd60e51b81526020600482015260076024820152664e6f206c6f636b60c81b60448201526064016107dd565b428160200151116109105760405162461bcd60e51b815260206004820152600c60248201526b131bd8dac8195e1c1a5c995960a21b60448201526064016107dd565b606080820151602080840151604080516080810182526000808252938101849052908101839052938401919091529091600190336001600160a01b03851603610a7c57600291506109c68560408051608081018252600080825260208201819052918101829052606081019190915260405180608001604052808360000151600f0b8152602001836020015181526020018360400151600f0b815260200183606001516001600160a01b03168152509050919050565b905085816000018181516109da9190613f83565b600f0b9052506040810180518791906109f4908390613f83565b600f0b9052503360009081526729a2241af62c000b6020908152604091829020835181546001600160801b03199081166001600160801b039283161783559285015160018301559284015160028201805490931693169290921790556060820151600390910180546001600160a01b0319166001600160a01b03909216919091179055610d4d565b8585600001818151610a8e9190613f83565b600f90810b9091523360009081526729a2241af62c000b602090815260408083208a5181546001600160801b03199081166001600160801b039283161783558c8501516001808501919091558d85015160028086018054909416919094161790915560609c8d0151600393840180546001600160a01b0319166001600160a01b039283161790558c81168752848720855160808101875281548a0b80825293820154978101979097529283015490970b93850193909352015490931698810198909852129050610ba05760405162461bcd60e51b815260206004820152601560248201527f44656c65676174656520686173206e6f206c6f636b000000000000000000000060448201526064016107dd565b42856020015111610bf35760405162461bcd60e51b815260206004820152601660248201527f44656c656761746565206c6f636b20657870697265640000000000000000000060448201526064016107dd565b610c628560408051608081018252600080825260208201819052918101829052606081019190915260405180608001604052808360000151600f0b8152602001836020015181526020018360400151600f0b815260200183606001516001600160a01b03168152509050919050565b90508581604001818151610c769190613f83565b600f0b9052506001600160a01b0384811660009081526729a2241af62c000b6020908152604091829020845181546001600160801b03199081166001600160801b039283161783559286015160018301559285015160028201805490931693169290921790556060830151600390910180546001600160a01b031916919092161790556006602080830151604080518a81529283019190915242908201526001600160a01b038616907fbe9cf0e939c614fad640a623a53ba0a807c8cb503c4c4c8dacabe27b86ff2dd59060600160405180910390a35b610d58848683613218565b6001546040516323b872dd60e01b8152336004820152306024820152604481018890526001600160a01b03909116906323b872dd906064016020604051808303816000875af1158015610daf573d6000803e3d6000fd5b505050506040513d601f19601f82011682018060405250810190610dd39190613f4b565b610e115760405162461bcd60e51b815260206004820152600f60248201526e151c985b9cd9995c8819985a5b1959608a1b60448201526064016107dd565b816007811115610e2357610e23613fc2565b60408051888152602081018690524281830152905133917fbe9cf0e939c614fad640a623a53ba0a807c8cb503c4c4c8dacabe27b86ff2dd5919081900360600190a35050505050610e746001600055565b50565b60075460009081600882670de0b6b3a76400008110610e9857610e98613fd8565b60408051608081018252600392909202929092018054600f81810b8452600160801b909104900b602083015260018101549282019290925260029091015460608201529050610ee78142613970565b9250505090565b6729a2241af62c000860205281600052604060002081633b9aca008110610f1457600080fd5b6003020180546001820154600290920154600f82810b9550600160801b90920490910b925084565b6040805160808101825260008082526020808301829052828401829052606083018290526001600160a01b03861682526729a2241af62c000890529190912082633b9aca008110610f8f57610f8f613fd8565b60408051608081018252600392909202929092018054600f81810b8452600160801b909104900b6020830152600181015492820192909252600290910154606082015290505b92915050565b6006546001600160a01b031633146110355760405162461bcd60e51b815260206004820152600e60248201527f4f6e6c7920426c6f636b6c69737400000000000000000000000000000000000060448201526064016107dd565b6001600160a01b0380821660008181526729a2241af62c000b602090815260409182902082516080810184528154600f90810b8083526001840154948301949094526002830154900b9381019390935260030154909316606082018190529092909182148015906110a95750600081600f0b135b1561114b5760408051608080820183526000808352602080840182905283850182905260609384018290526001600160a01b038981168986015287811683526729a2241af62c000b825291859020855193840186528054600f90810b8552600182015492850192909252600281015490910b948301949094526003909301549092169082015261113c8382846007613a65565b6111498585846006613a65565b505b50505050565b60058054600090915560015460035460405163a9059cbb60e01b81526001600160a01b0391821660048201526024810184905291169063a9059cbb906044016020604051808303816000875af11580156111af573d6000803e3d6000fd5b505050506040513d601f19601f820116820180604052508101906111d39190613f4b565b6112115760405162461bcd60e51b815260206004820152600f60248201526e151c985b9cd9995c8819985a5b1959608a1b60448201526064016107dd565b600354604080518381526001600160a01b0390921660208301527fabef55bd3931568707a1758ae67679779c66d9deaa23e8bbad8974e421035d6091015b60405180910390a150565b6112626131bf565b3360009081526729a2241af62c000b6020908152604080832081516080810183528154600f90810b8083526001840154958301959095526002830154900b92810192909252600301546001600160a01b0316606082015291126112f15760405162461bcd60e51b81526020600482015260076024820152664e6f206c6f636b60c81b60448201526064016107dd565b42816020015111156113455760405162461bcd60e51b815260206004820152601060248201527f4c6f636b206e6f7420657870697265640000000000000000000000000000000060448201526064016107dd565b60608101516001600160a01b031633146113a15760405162461bcd60e51b815260206004820152600e60248201527f4c6f636b2064656c65676174656400000000000000000000000000000000000060448201526064016107dd565b80516001600160801b0316600061141d8360408051608081018252600080825260208201819052918101829052606081019190915260405180608001604052808360000151600f0b8152602001836020015181526020018360400151600f0b815260200183606001516001600160a01b03168152509050919050565b60008082526020820152604081018051919250839161143d908390613fee565b600f0b905250600060608201818152338083526729a2241af62c000b60209081526040808520865181546001600160801b03199081166001600160801b0392831617835593880151600183015591870180516002830180549095169316929092179092559251600390910180546001600160a01b0319166001600160a01b039092169190911790559190526114d3908483613218565b60015460405163a9059cbb60e01b8152336004820152602481018490526001600160a01b039091169063a9059cbb906044016020604051808303816000875af1158015611524573d6000803e3d6000fd5b505050506040513d601f19601f820116820180604052508101906115489190613f4b565b6115865760405162461bcd60e51b815260206004820152600f60248201526e151c985b9cd9995c8819985a5b1959608a1b60448201526064016107dd565b60046040805184815242602082015233917fc6c74a68f89b63353b582f75a2009daefef14ef389fbf7e30edb6141f414f028910160405180910390a35050506115cf6001600055565b565b6002546001600160a01b031633146116185760405162461bcd60e51b815260206004820152600a60248201526927b7363c9037bbb732b960b11b60448201526064016107dd565b600680546001600160a01b0319166001600160a01b0383169081179091556040519081527fb089f68ad820a83477076ed7bca5d94c6a56c0c85e82b7ed8df87507a1d6198b9060200161124f565b6000438211156116b85760405162461bcd60e51b815260206004820152601660248201527f4f6e6c79207061737420626c6f636b206e756d6265720000000000000000000060448201526064016107dd565b60006116c48484613c7f565b9050806000036116d8576000915050610fd5565b6001600160a01b03841660009081526729a2241af62c00086020526040812082633b9aca00811061170b5761170b613fd8565b60408051608081018252600392909202929092018054600f81810b8452600160801b909104900b6020830152600181015492820192909252600290910154606082015260075490915060006117608683613d4f565b90506000600882670de0b6b3a7640000811061177e5761177e613fd8565b60408051608081018252600392909202929092018054600f81810b8452600160801b909104900b6020830152600181015492820192909252600290910154606082015290506000808484101561186857600060086117dd86600161402d565b670de0b6b3a764000081106117f4576117f4613fd8565b60408051608081018252600392909202929092018054600f81810b8452600160801b909104900b6020830152600181015492820192909252600290910154606080830182905286015191925061184a9190614040565b9250836040015181604001516118609190614040565b91505061188c565b60608301516118779043614040565b91508260400151426118899190614040565b90505b604083015182156118c9578284606001518b6118a89190614040565b6118b29084614053565b6118bc9190614080565b6118c6908261402d565b90505b60408701516118d89082614040565b87602001516118e79190614094565b87516118f39190613fee565b600f0b80885260001361191a57505093516001600160801b03169550610fd5945050505050565b600098505050505050505050610fd5565b6119336131bf565b60065460405163fbac395160e01b81523360048201526001600160a01b039091169063fbac395190602401602060405180830381865afa15801561197b573d6000803e3d6000fd5b505050506040513d601f19601f8201168201806040525081019061199f9190613f4b565b156119df5760405162461bcd60e51b815260206004820152601060248201526f109b1bd8dad9590818dbdb9d1c9858dd60821b60448201526064016107dd565b3360009081526729a2241af62c000b602090815260409182902082516080810184528154600f90810b8252600183015493820193909352600282015490920b82840152600301546001600160a01b039081166060830152600654925163fbac395160e01b815284821660048201529192169063fbac395190602401602060405180830381865afa158015611a77573d6000803e3d6000fd5b505050506040513d601f19601f82011682018060405250810190611a9b9190613f4b565b15611adb5760405162461bcd60e51b815260206004820152601060248201526f109b1bd8dad9590818dbdb9d1c9858dd60821b60448201526064016107dd565b60008160000151600f0b13611b1c5760405162461bcd60e51b81526020600482015260076024820152664e6f206c6f636b60c81b60448201526064016107dd565b816001600160a01b031681606001516001600160a01b031603611b815760405162461bcd60e51b815260206004820152601160248201527f416c72656164792064656c65676174656400000000000000000000000000000060448201526064016107dd565b80516060808301516040805160808101825260008082526020820181905291810182905292830152906040805160808101825260008082526020820181905291810182905260608101919091526001600160a01b0380871660608701523390841603611c4e5750506001600160a01b0380851660009081526729a2241af62c000b602090815260409182902082516080810184528154600f90810b8252600183015493820193909352600282015490920b9282019290925260039091015490911660608201528390611dc0565b336001600160a01b03871603611cc45750506001600160a01b0380821660009081526729a2241af62c000b602090815260409182902082516080810184528154600f90810b8252600183015493820193909352600282015490920b92820192909252600390910154909116606082015283611dc0565b50506001600160a01b0380821660009081526729a2241af62c000b602081815260408084208151608080820184528254600f90810b835260018085015484880152600280860154830b858801526003958601548b166060808701919091528f8c168b52898952878b20885195860189528054850b865280840154868b01528083015490940b85890152928601548b1684840152338a52978752978590208c5181546001600160801b039182166001600160801b0319918216178355978e015199820199909955948c015196850180549790981696909516959095179095559188015191018054919094166001600160a01b031990911617909255905b60008160000151600f0b13611e175760405162461bcd60e51b815260206004820152601560248201527f44656c65676174656520686173206e6f206c6f636b000000000000000000000060448201526064016107dd565b42816020015111611e6a5760405162461bcd60e51b815260206004820152601660248201527f44656c656761746565206c6f636b20657870697265640000000000000000000060448201526064016107dd565b816020015181602001511015611ec25760405162461bcd60e51b815260206004820152601c60248201527f4f6e6c792064656c656761746520746f206c6f6e676572206c6f636b0000000060448201526064016107dd565b611ecf8383866007613a65565b611edc8682866006613a65565b5050505050610e746001600055565b6001600160a01b03811660009081526729a2241af62c00096020526040812054808203611f1b5750600092915050565b6001600160a01b03831660009081526729a2241af62c00086020526040812082633b9aca008110611f4e57611f4e613fd8565b60408051608081018252600392909202929092018054600f81810b8452600160801b909104900b602083015260018101549282018390526002015460608201529150611f9a9042614040565b8160200151611fa99190614094565b8151611fb59190613fee565b600f0b80825260001315611fc857600081525b516001600160801b03169392505050565b60004282111561202b5760405162461bcd60e51b815260206004820152601460248201527f4f6e6c7920706173742074696d657374616d707300000000000000000000000060448201526064016107dd565b6007546000600882670de0b6b3a7640000811061204a5761204a613fd8565b60408051608081018252600392909202929092018054600f81810b8452600160801b909104900b6020830152600181015492820192909252600290910154606082015290506120998185613970565b949350505050565b6120a96131bf565b3360009081526729a2241af62c000b6020908152604080832081516080810183528154600f90810b8083526001840154958301959095526002830154900b92810192909252600301546001600160a01b0316606082015291126121385760405162461bcd60e51b81526020600482015260076024820152664e6f206c6f636b60c81b60448201526064016107dd565b4281602001511161217a5760405162461bcd60e51b815260206004820152600c60248201526b131bd8dac8195e1c1a5c995960a21b60448201526064016107dd565b60608101516001600160a01b031633146121d65760405162461bcd60e51b815260206004820152600e60248201527f4c6f636b2064656c65676174656400000000000000000000000000000000000060448201526064016107dd565b80516001600160801b031660006122528360408051608081018252600080825260208201819052918101829052606081019190915260405180608001604052808360000151600f0b8152602001836020015181526020018360400151600f0b815260200183606001516001600160a01b03168152509050919050565b60008152604081018051919250839161226c908390613fee565b600f0b905250600060608201818152338083526729a2241af62c000b60209081526040808520865181546001600160801b03199081166001600160801b039283161783559388018051600184015592880180516002840180549096169216919091179093559351600390940180546001600160a01b0319166001600160a01b039095169490941790935591839052919052612308908483613218565b60006123178460200151613ddc565b90506000670de0b6b3a764000061232e8386614053565b6123389190614080565b9050806005600082825461234c919061402d565b909155506000905061235e8286614040565b60015460405163a9059cbb60e01b8152336004820152602481018390529192506001600160a01b03169063a9059cbb906044016020604051808303816000875af11580156123b0573d6000803e3d6000fd5b505050506040513d601f19601f820116820180604052508101906123d49190613f4b565b6124125760405162461bcd60e51b815260206004820152600f60248201526e151c985b9cd9995c8819985a5b1959608a1b60448201526064016107dd565b60056040805187815242602082015233917fc6c74a68f89b63353b582f75a2009daefef14ef389fbf7e30edb6141f414f028910160405180910390a35050505050506115cf6001600055565b6124666131bf565b60065460405163fbac395160e01b81523360048201526001600160a01b039091169063fbac395190602401602060405180830381865afa1580156124ae573d6000803e3d6000fd5b505050506040513d601f19601f820116820180604052508101906124d29190613f4b565b156125125760405162461bcd60e51b815260206004820152601060248201526f109b1bd8dad9590818dbdb9d1c9858dd60821b60448201526064016107dd565b3360009081526729a2241af62c000b6020908152604080832081516080810183528154600f90810b8252600183015494820194909452600282015490930b91830191909152600301546001600160a01b031660608201529061257383613e06565b905060008260000151600f0b136125b65760405162461bcd60e51b81526020600482015260076024820152664e6f206c6f636b60c81b60448201526064016107dd565b816020015181116126095760405162461bcd60e51b815260206004820152601660248201527f4f6e6c7920696e637265617365206c6f636b20656e640000000000000000000060448201526064016107dd565b6126176301e133804261402d565b8111156126665760405162461bcd60e51b815260206004820152600f60248201527f45786365656473206d617874696d65000000000000000000000000000000000060448201526064016107dd565b602082810180518382523360008181526729a2241af62c000b909452604093849020865181546001600160801b03199081166001600160801b0392831617835594516001830155948701516002820180549095169516949094179092556060850151600390930180546001600160a01b0319166001600160a01b03909416938417905591036127b45742811161272d5760405162461bcd60e51b815260206004820152600c60248201526b131bd8dac8195e1c1a5c995960a21b60448201526064016107dd565b600061279e8460408051608081018252600080825260208201819052918101829052606081019190915260405180608001604052808360000151600f0b8152602001836020015181526020018360400151600f0b815260200183606001516001600160a01b03168152509050919050565b6020810184905290506127b2338286613218565b505b6040805160008152602081018490524281830152905160039133917fbe9cf0e939c614fad640a623a53ba0a807c8cb503c4c4c8dacabe27b86ff2dd59181900360600190a3505050610e746001600055565b600881670de0b6b3a7640000811061281d57600080fd5b6003020180546001820154600290920154600f82810b9450600160801b90920490910b919084565b6729a2241af62c000d80546106ac90613f11565b6000438211156128ab5760405162461bcd60e51b815260206004820152601660248201527f4f6e6c79207061737420626c6f636b206e756d6265720000000000000000000060448201526064016107dd565b60075460006128ba8483613d4f565b90506000600882670de0b6b3a764000081106128d8576128d8613fd8565b60408051608081018252600392909202929092018054600f81810b8452600160801b909104900b60208301526001810154928201929092526002909101546060820181905290915085101561293257506000949350505050565b600083831015612a07576000600861294b85600161402d565b670de0b6b3a7640000811061296257612962613fd8565b60408051608081018252600392909202929092018054600f81810b8452600160801b909104900b6020830152600181015492820192909252600290910154606080830182905285015191925014612a0157826060015181606001516129c79190614040565b836040015182604001516129db9190614040565b60608501516129ea908a614040565b6129f49190614053565b6129fe9190614080565b91505b50612a56565b43826060015114612a56576060820151612a219043614040565b6040830151612a309042614040565b6060840151612a3f9089614040565b612a499190614053565b612a539190614080565b90505b612a6f82828460400151612a6a919061402d565b613970565b9695505050505050565b6002546001600160a01b03163314612ac05760405162461bcd60e51b815260206004820152600a60248201526927b7363c9037bbb732b960b11b60448201526064016107dd565b600060048190556040517f70e3fffea7bbb557facdee48ed7f7af5179030adef9ad0c876df039a718f359e9190a1565b612af86131bf565b60065460405163fbac395160e01b81523360048201526001600160a01b039091169063fbac395190602401602060405180830381865afa158015612b40573d6000803e3d6000fd5b505050506040513d601f19601f82011682018060405250810190612b649190613f4b565b15612ba45760405162461bcd60e51b815260206004820152601060248201526f109b1bd8dad9590818dbdb9d1c9858dd60821b60448201526064016107dd565b6000612baf82613e06565b3360009081526729a2241af62c000b602090815260409182902082516080810184528154600f90810b8252600183015493820193909352600282015490920b928201929092526003909101546001600160a01b0316606082015290915083612c595760405162461bcd60e51b815260206004820152601460248201527f4f6e6c79206e6f6e207a65726f20616d6f756e7400000000000000000000000060448201526064016107dd565b8051600f0b15612cab5760405162461bcd60e51b815260206004820152600b60248201527f4c6f636b2065786973747300000000000000000000000000000000000000000060448201526064016107dd565b8060200151821015612cff5760405162461bcd60e51b815260206004820152601660248201527f4f6e6c7920696e637265617365206c6f636b20656e640000000000000000000060448201526064016107dd565b428211612d4e5760405162461bcd60e51b815260206004820152601460248201527f4f6e6c7920667574757265206c6f636b20656e6400000000000000000000000060448201526064016107dd565b612d5c6301e133804261402d565b821115612dab5760405162461bcd60e51b815260206004820152600f60248201527f45786365656473206d617874696d65000000000000000000000000000000000060448201526064016107dd565b8381600001818151612dbd9190613f83565b600f0b90525060208101829052604081018051859190612dde908390613f83565b600f0b90525033606082810182815260008381526729a2241af62c000b60209081526040808320875181546001600160801b03199081166001600160801b03928316178355848a01516001840155838a015160028401805490921692169190911790559351600390940180546001600160a01b0319166001600160a01b0390951694909417909355825160808101845282815290810182905291820181905291810191909152612e8f919083613218565b6001546040516323b872dd60e01b8152336004820152306024820152604481018690526001600160a01b03909116906323b872dd906064016020604051808303816000875af1158015612ee6573d6000803e3d6000fd5b505050506040513d601f19601f82011682018060405250810190612f0a9190613f4b565b612f485760405162461bcd60e51b815260206004820152600f60248201526e151c985b9cd9995c8819985a5b1959608a1b60448201526064016107dd565b60408051858152602081018490524281830152905160009133917fbe9cf0e939c614fad640a623a53ba0a807c8cb503c4c4c8dacabe27b86ff2dd59181900360600190a35050612f986001600055565b5050565b604080516080810182526000808252602082018190529181018290526060810191909152610e7460008283613218565b6001600160a01b03811660009081526729a2241af62c00096020526040812054819081908082036130085760008060009350935093505061308e565b6001600160a01b03851660009081526729a2241af62c00086020526040812082633b9aca00811061303b5761303b613fd8565b60408051608081018252600392909202929092018054600f81810b808552600160801b909204900b6020840181905260018301549484018590526002909201546060909301929092529096509450925050505b9193909250565b6002546001600160a01b031633146130dc5760405162461bcd60e51b815260206004820152600a60248201526927b7363c9037bbb732b960b11b60448201526064016107dd565b600380546001600160a01b0319166001600160a01b0383169081179091556040519081527ff5fad27d0b1a5f45f08a652a1e4502d75974a852e28d3502d4a978b7cfd900ba9060200161124f565b6002546001600160a01b031633146131715760405162461bcd60e51b815260206004820152600a60248201526927b7363c9037bbb732b960b11b60448201526064016107dd565b600280546001600160a01b0319166001600160a01b0383169081179091556040519081527fcfaaa26691e16e66e73290fc725eee1a6b4e0e693a1640484937aac25ffb55a49060200161124f565b6002600054036132115760405162461bcd60e51b815260206004820152601f60248201527f5265656e7472616e637947756172643a207265656e7472616e742063616c6c0060448201526064016107dd565b6002600055565b60408051608081018252600080825260208201819052918101829052606081019190915260408051608081018252600080825260208201819052918101829052606081019190915260075460009081906001600160a01b038816156134f557428760200151118015613291575060008760400151600f0b135b156132d9576301e1338087604001516132aa91906140bb565b600f0b6020808701919091528701516132c4904290614040565b85602001516132d39190614094565b600f0b85525b4286602001511180156132f3575060008660400151600f0b135b1561333b576301e13380866040015161330c91906140bb565b600f0b602080860191909152860151613326904290614040565b84602001516133359190614094565b600f0b84525b6001600160a01b03881660009081526729a2241af62c00096020526040812054908190036133e1576001600160a01b03891660009081526729a2241af62c000860205260409020869061338f83600161402d565b633b9aca0081106133a2576133a2613fd8565b825160208401516001600160801b03908116600160801b0291161760039190910291909101908155604082015160018201556060909101516002909101555b6133ec81600161402d565b6001600160a01b038a1660008181526729a2241af62c0009602090815260408083209490945542898501524360608a01529181526729a2241af62c000890915220859061343a83600161402d565b633b9aca00811061344d5761344d613fd8565b82516020808501516001600160801b03908116600160801b029216919091176003929092029290920190815560408084015160018301556060909301516002909101558981015160009081526729a2241af62c000a8252919091205490880151600f9190910b9450156134f35787602001518760200151036134d1578392506134f3565b60208088015160009081526729a2241af62c000a9091526040902054600f0b92505b505b60408051608081018252600080825260208201524291810191909152436060820152811561357d57600882670de0b6b3a7640000811061353757613537613fd8565b60408051608081018252600392909202929092018054600f81810b8452600160801b909104900b6020830152600181015492820192909252600290910154606082015290505b6040808201805182516080810184526000808252602082018190528351948201949094526060808601519082015291519092904211156135f45760408401516135c69042614040565b60608501516135d59043614040565b6135e790670de0b6b3a7640000614053565b6135f19190614080565b90505b60006135ff84613e06565b905060005b60ff8110156137975761361a62093a808361402d565b915060004283111561362e57429250613649565b5060008281526729a2241af62c000a6020526040902054600f0b5b60006136558785614040565b88602001516136649190614094565b8851909150613674908290613fee565b600f0b88526020880151613689908390613f83565b600f90810b60208a015288516000910b12156136a457600088525b60008860200151600f0b12156136bc57600060208901525b60408089018590528601519396508693670de0b6b3a7640000906136e09086614040565b6136ea9087614053565b6136f49190614080565b8660600151613703919061402d565b606089015261371389600161402d565b9850428403613729575050436060870152613797565b8760088a670de0b6b3a7640000811061374457613744613fd8565b825160208401516001600160801b03908116600160801b0291161760039190910291909101908155604082015160018201556060909101516002909101555050808061378f90614102565b915050613604565b5060078690556001600160a01b038d1615613824578960200151896020015186602001516137c59190613f83565b6137cf9190613fee565b600f0b60208601528951895186516137e79190613f83565b6137f19190613fee565b600f90810b865260208601516000910b121561380f57600060208601525b60008560000151600f0b121561382457600085525b84600887670de0b6b3a7640000811061383f5761383f613fd8565b825160208401516001600160801b03908116600160801b0291161760039190910291909101908155604082015160018201556060909101516002909101556001600160a01b038d161561396157428c6020015111156138ff5760208a01516138a79089613f83565b97508b602001518b60200151036138ca5760208901516138c79089613fee565b97505b60208c81015160009081526729a2241af62c000a9091526040902080546001600160801b0319166001600160801b038a161790555b428b602001511115613961578b602001518b60200151111561396157602089015161392a9088613fee565b60208c81015160009081526729a2241af62c000a9091526040902080546001600160801b0319166001600160801b03831617905596505b50505050505050505050505050565b60008083905060006139858260400151613e06565b905060005b60ff811015613a3d576139a062093a808361402d565b91506000858311156139b4578592506139cf565b5060008281526729a2241af62c000a6020526040902054600f0b5b60408401516139de9084614040565b84602001516139ed9190614094565b84516139f99190613fee565b600f0b8452858303613a0b5750613a3d565b808460200151613a1b9190613f83565b600f0b6020850152506040830182905280613a3581614102565b91505061398a565b5060008260000151600f0b1215613a5357600082525b50516001600160801b03169392505050565b6000613ad68460408051608081018252600080825260208201819052918101829052606081019190915260405180608001604052808360000151600f0b8152602001836020015181526020018360400151600f0b815260200183606001516001600160a01b03168152509050919050565b90506006826007811115613aec57613aec613fc2565b03613b75578281604001818151613b039190613f83565b600f0b905250816007811115613b1b57613b1b613fc2565b60208083015160408051600f88900b81529283019190915242908201526001600160a01b038716907fbe9cf0e939c614fad640a623a53ba0a807c8cb503c4c4c8dacabe27b86ff2dd59060600160405180910390a3613be7565b8281604001818151613b879190613fee565b600f0b905250816007811115613b9f57613b9f613fc2565b60408051600f86900b81524260208201526001600160a01b038816917fc6c74a68f89b63353b582f75a2009daefef14ef389fbf7e30edb6141f414f028910160405180910390a35b6001600160a01b0385811660009081526729a2241af62c000b60209081526040808320855181546001600160801b03199081166001600160801b03808416919091178455948801516001840155928701516002830180549094169416939093179091556060850151600390910180546001600160a01b0319169190941617909255600f9190910b131561114957611149858583613218565b6001600160a01b03821660009081526729a2241af62c000960205260408120548190815b6080811015613d455781831015613d455760006002613cc2848661402d565b613ccd90600161402d565b613cd79190614080565b6001600160a01b03881660009081526729a2241af62c000860205260409020909150869082633b9aca008110613d0f57613d0f613fd8565b600302016002015411613d2457809350613d32565b613d2f600182614040565b92505b5080613d3d81614102565b915050613ca3565b5090949350505050565b60008082815b6080811015613d455781831015613d455760006002613d74848661402d565b613d7f90600161402d565b613d899190614080565b905086600882670de0b6b3a76400008110613da657613da6613fd8565b600302016002015411613dbb57809350613dc9565b613dc6600182614040565b92505b5080613dd481614102565b915050613d55565b60006301e133806004544284613df29190614040565b613dfc9190614053565b610fd59190614080565b600062093a80613e168184614080565b610fd59190614053565b600060208083528351808285015260005b81811015613e4d57858101830151858201604001528201613e31565b506000604082860101526040601f19601f8301168501019250505092915050565b600060208284031215613e8057600080fd5b5035919050565b80356001600160a01b0381168114613e9e57600080fd5b919050565b600060208284031215613eb557600080fd5b613ebe82613e87565b9392505050565b60008060408385031215613ed857600080fd5b613ee183613e87565b946020939093013593505050565b60008060408385031215613f0257600080fd5b50508035926020909101359150565b600181811c90821680613f2557607f821691505b602082108103613f4557634e487b7160e01b600052602260045260246000fd5b50919050565b600060208284031215613f5d57600080fd5b81518015158114613ebe57600080fd5b634e487b7160e01b600052601160045260246000fd5b600f81810b9083900b016f7fffffffffffffffffffffffffffffff81136f7fffffffffffffffffffffffffffffff1982121715610fd557610fd5613f6d565b634e487b7160e01b600052602160045260246000fd5b634e487b7160e01b600052603260045260246000fd5b600f82810b9082900b036f7fffffffffffffffffffffffffffffff1981126f7fffffffffffffffffffffffffffffff82131715610fd557610fd5613f6d565b80820180821115610fd557610fd5613f6d565b81810381811115610fd557610fd5613f6d565b8082028115828204841417610fd557610fd5613f6d565b634e487b7160e01b600052601260045260246000fd5b60008261408f5761408f61406a565b500490565b600082600f0b82600f0b0280600f0b91508082146140b4576140b4613f6d565b5092915050565b600081600f0b83600f0b806140d2576140d261406a565b6f7fffffffffffffffffffffffffffffff198214600019821416156140f9576140f9613f6d565b90059392505050565b60006001820161411457614114613f6d565b506001019056fea264697066735822122098a7155b21375d0e815cc9648ed0b0bf00430067a737898d46f23d48601534fd64736f6c63430008110033",
  "linkReferences": {},
  "deployedLinkReferences": {}
}